{
  "contractName": "DEX",
  "abi": [
    {
      "inputs": [],
      "stateMutability": "nonpayable",
      "type": "constructor"
    },
    {
      "anonymous": false,
      "inputs": [
        {
          "indexed": false,
          "internalType": "uint256",
          "name": "tradeId",
          "type": "uint256"
        },
        {
          "indexed": false,
          "internalType": "uint256",
          "name": "orderId",
          "type": "uint256"
        },
        {
          "indexed": true,
          "internalType": "bytes32",
          "name": "ticker",
          "type": "bytes32"
        },
        {
          "indexed": true,
          "internalType": "address",
          "name": "trader1",
          "type": "address"
        },
        {
          "indexed": true,
          "internalType": "address",
          "name": "trader2",
          "type": "address"
        },
        {
          "indexed": false,
          "internalType": "uint256",
          "name": "amount",
          "type": "uint256"
        },
        {
          "indexed": false,
          "internalType": "uint256",
          "name": "price",
          "type": "uint256"
        },
        {
          "indexed": false,
          "internalType": "uint256",
          "name": "date",
          "type": "uint256"
        }
      ],
      "name": "newTrade",
      "type": "event"
    },
    {
      "inputs": [],
      "name": "admin",
      "outputs": [
        {
          "internalType": "address",
          "name": "",
          "type": "address"
        }
      ],
      "stateMutability": "view",
      "type": "function"
    },
    {
      "inputs": [
        {
          "internalType": "bytes32",
          "name": "",
          "type": "bytes32"
        },
        {
          "internalType": "uint256",
          "name": "",
          "type": "uint256"
        },
        {
          "internalType": "uint256",
          "name": "",
          "type": "uint256"
        }
      ],
      "name": "orderBook",
      "outputs": [
        {
          "internalType": "uint256",
          "name": "id",
          "type": "uint256"
        },
        {
          "internalType": "address",
          "name": "trader",
          "type": "address"
        },
        {
          "internalType": "enum DEX.Side",
          "name": "side",
          "type": "uint8"
        },
        {
          "internalType": "uint256",
          "name": "amount",
          "type": "uint256"
        },
        {
          "internalType": "uint256",
          "name": "filled",
          "type": "uint256"
        },
        {
          "internalType": "uint256",
          "name": "price",
          "type": "uint256"
        },
        {
          "internalType": "bytes32",
          "name": "ticker",
          "type": "bytes32"
        },
        {
          "internalType": "uint256",
          "name": "date",
          "type": "uint256"
        }
      ],
      "stateMutability": "view",
      "type": "function"
    },
    {
      "inputs": [
        {
          "internalType": "uint256",
          "name": "",
          "type": "uint256"
        }
      ],
      "name": "tokenList",
      "outputs": [
        {
          "internalType": "bytes32",
          "name": "",
          "type": "bytes32"
        }
      ],
      "stateMutability": "view",
      "type": "function"
    },
    {
      "inputs": [
        {
          "internalType": "bytes32",
          "name": "",
          "type": "bytes32"
        }
      ],
      "name": "tokens",
      "outputs": [
        {
          "internalType": "bytes32",
          "name": "ticker",
          "type": "bytes32"
        },
        {
          "internalType": "address",
          "name": "tokenAddress",
          "type": "address"
        }
      ],
      "stateMutability": "view",
      "type": "function"
    },
    {
      "inputs": [
        {
          "internalType": "address",
          "name": "",
          "type": "address"
        },
        {
          "internalType": "bytes32",
          "name": "",
          "type": "bytes32"
        }
      ],
      "name": "tradersbalances",
      "outputs": [
        {
          "internalType": "uint256",
          "name": "",
          "type": "uint256"
        }
      ],
      "stateMutability": "view",
      "type": "function"
    },
    {
      "inputs": [
        {
          "internalType": "bytes32",
          "name": "_ticker",
          "type": "bytes32"
        },
        {
          "internalType": "address",
          "name": "_tokenAddress",
          "type": "address"
        }
      ],
      "name": "addToken",
      "outputs": [],
      "stateMutability": "nonpayable",
      "type": "function"
    },
    {
      "inputs": [
        {
          "internalType": "uint256",
          "name": "_amount",
          "type": "uint256"
        },
        {
          "internalType": "bytes32",
          "name": "_ticker",
          "type": "bytes32"
        }
      ],
      "name": "deposit",
      "outputs": [],
      "stateMutability": "nonpayable",
      "type": "function"
    },
    {
      "inputs": [
        {
          "internalType": "uint256",
          "name": "_amount",
          "type": "uint256"
        },
        {
          "internalType": "bytes32",
          "name": "_ticker",
          "type": "bytes32"
        }
      ],
      "name": "withdraw",
      "outputs": [],
      "stateMutability": "nonpayable",
      "type": "function"
    },
    {
      "inputs": [
        {
          "internalType": "bytes32",
          "name": "_ticker",
          "type": "bytes32"
        },
        {
          "internalType": "uint256",
          "name": "_amount",
          "type": "uint256"
        },
        {
          "internalType": "uint256",
          "name": "_price",
          "type": "uint256"
        },
        {
          "internalType": "enum DEX.Side",
          "name": "_side",
          "type": "uint8"
        }
      ],
      "name": "createLimitOrder",
      "outputs": [],
      "stateMutability": "nonpayable",
      "type": "function"
    },
    {
      "inputs": [
        {
          "internalType": "bytes32",
          "name": "_ticker",
          "type": "bytes32"
        },
        {
          "internalType": "uint256",
          "name": "_amount",
          "type": "uint256"
        },
        {
          "internalType": "enum DEX.Side",
          "name": "_side",
          "type": "uint8"
        }
      ],
      "name": "createMarketOrder",
      "outputs": [],
      "stateMutability": "nonpayable",
      "type": "function"
    },
    {
      "inputs": [
        {
          "internalType": "bytes32",
          "name": "ticker",
          "type": "bytes32"
        },
        {
          "internalType": "enum DEX.Side",
          "name": "side",
          "type": "uint8"
        }
      ],
      "name": "getOrders",
      "outputs": [
        {
          "components": [
            {
              "internalType": "uint256",
              "name": "id",
              "type": "uint256"
            },
            {
              "internalType": "address",
              "name": "trader",
              "type": "address"
            },
            {
              "internalType": "enum DEX.Side",
              "name": "side",
              "type": "uint8"
            },
            {
              "internalType": "uint256",
              "name": "amount",
              "type": "uint256"
            },
            {
              "internalType": "uint256",
              "name": "filled",
              "type": "uint256"
            },
            {
              "internalType": "uint256",
              "name": "price",
              "type": "uint256"
            },
            {
              "internalType": "bytes32",
              "name": "ticker",
              "type": "bytes32"
            },
            {
              "internalType": "uint256",
              "name": "date",
              "type": "uint256"
            }
          ],
          "internalType": "struct DEX.Order[]",
          "name": "",
          "type": "tuple[]"
        }
      ],
      "stateMutability": "view",
      "type": "function"
    },
    {
      "inputs": [],
      "name": "getTokens",
      "outputs": [
        {
          "components": [
            {
              "internalType": "bytes32",
              "name": "ticker",
              "type": "bytes32"
            },
            {
              "internalType": "address",
              "name": "tokenAddress",
              "type": "address"
            }
          ],
          "internalType": "struct DEX.Token[]",
          "name": "",
          "type": "tuple[]"
        }
      ],
      "stateMutability": "view",
      "type": "function"
    }
  ],
  "bytecode": "0x60806040527f444149000000000000000000000000000000000000000000000000000000000060055534801561003457600080fd5b5033600460006101000a81548173ffffffffffffffffffffffffffffffffffffffff021916908373ffffffffffffffffffffffffffffffffffffffff1602179055506132ac806100856000396000f3fe608060405234801561001057600080fd5b50600436106100d1576000357c010000000000000000000000000000000000000000000000000000000090048063a8d2021a1161008e578063a8d2021a146101d6578063aa6ca808146101f2578063c9630cb014610210578063d9c0c9501461022c578063f67f737514610248578063f851a44014610278576100d1565b80630bb431b6146100d657806346e9658b1461010d5780637f2c62461461013d578063904194a3146101595780639776aacf1461018a5780639ead7222146101a6575b600080fd5b6100f060048036036100eb91908101906127b2565b610296565b604051610104989796959493929190612fad565b60405180910390f35b61012760048036036101229190810190612727565b610332565b6040516101349190612de8565b60405180910390f35b61015760048036036101529190810190612763565b610481565b005b610173600480360361016e91908101906126c2565b611415565b604051610181929190612e47565b60405180910390f35b6101a4600480360361019f91908101906126eb565b611459565b005b6101c060048036036101bb9190810190612864565b6115a7565b6040516101cd9190612e2c565b60405180910390f35b6101f060048036036101eb919081019061288d565b6115c8565b005b6101fa61189c565b6040516102079190612e0a565b60405180910390f35b61022a6004803603610225919081019061288d565b6119c3565b005b61024660048036036102419190810190612801565b611c06565b005b610262600480360361025d919081019061265d565b6123a3565b60405161026f9190612f92565b60405180910390f35b6102806123c8565b60405161028d9190612d6d565b60405180910390f35b600260205282600052604060002060205281600052604060002081815481106102bb57fe5b906000526020600020906007020160009250925050508060000154908060010160009054906101000a900473ffffffffffffffffffffffffffffffffffffffff16908060010160149054906101000a900460ff16908060020154908060030154908060040154908060050154908060060154905088565b606060026000848152602001908152602001600020600083600181111561035557fe5b8152602001908152602001600020805480602002602001604051908101604052809291908181526020016000905b82821015610475578382906000526020600020906007020160405180610100016040529081600082015481526020016001820160009054906101000a900473ffffffffffffffffffffffffffffffffffffffff1673ffffffffffffffffffffffffffffffffffffffff1673ffffffffffffffffffffffffffffffffffffffff1681526020016001820160149054906101000a900460ff16600181111561042557fe5b600181111561043057fe5b81526020016002820154815260200160038201548152602001600482015481526020016005820154815260200160068201548152505081526020019060010190610383565b50505050905092915050565b82600073ffffffffffffffffffffffffffffffffffffffff1660008083815260200190815260200160002060010160009054906101000a900473ffffffffffffffffffffffffffffffffffffffff1673ffffffffffffffffffffffffffffffffffffffff161415610527576040517f08c379a000000000000000000000000000000000000000000000000000000000815260040161051e90612f72565b60405180910390fd5b8360055481141561056d576040517f08c379a000000000000000000000000000000000000000000000000000000000815260040161056490612ed2565b60405180910390fd5b60018081111561057957fe5b83600181111561058557fe5b141561061f5783600160003373ffffffffffffffffffffffffffffffffffffffff1673ffffffffffffffffffffffffffffffffffffffff168152602001908152602001600020600087815260200190815260200160002054101561061e576040517f08c379a000000000000000000000000000000000000000000000000000000000815260040161061590612f32565b60405180910390fd5b5b600060026000878152602001908152602001600020600080600181111561064257fe5b86600181111561064e57fe5b1461065a57600061065d565b60015b600181111561066857fe5b81526020019081526020016000209050600080905060008690505b8280549050821080156106965750600081115b156111c45760006106ea8484815481106106ac57fe5b9060005260206000209060070201600301548585815481106106ca57fe5b9060005260206000209060070201600201546123ee90919063ffffffff16565b905060008183116106fb57826106fd565b815b905061071281846123ee90919063ffffffff16565b92506107448186868154811061072457fe5b90600052602060002090600702016003015461243890919063ffffffff16565b85858154811061075057fe5b9060005260206000209060070201600301819055503373ffffffffffffffffffffffffffffffffffffffff1685858154811061078857fe5b906000526020600020906007020160010160009054906101000a900473ffffffffffffffffffffffffffffffffffffffff1673ffffffffffffffffffffffffffffffffffffffff168b7ffc9e03b5c8db1d38fcbbef7db5d52adb19b17e683970fa3b5e4320e0c5e924e260075489898154811061080157fe5b906000526020600020906007020160000154868b8b8154811061082057fe5b9060005260206000209060070201600401544260405161084495949392919061302b565b60405180910390a460018081111561085857fe5b88600181111561086457fe5b1415610c91576108cd81600160003373ffffffffffffffffffffffffffffffffffffffff1673ffffffffffffffffffffffffffffffffffffffff16815260200190815260200160002060008d8152602001908152602001600020546123ee90919063ffffffff16565b600160003373ffffffffffffffffffffffffffffffffffffffff1673ffffffffffffffffffffffffffffffffffffffff16815260200190815260200160002060008c8152602001908152602001600020819055506109b561095486868154811061093357fe5b9060005260206000209060070201600401548361248d90919063ffffffff16565b600160003373ffffffffffffffffffffffffffffffffffffffff1673ffffffffffffffffffffffffffffffffffffffff168152602001908152602001600020600060055481526020019081526020016000205461243890919063ffffffff16565b600160003373ffffffffffffffffffffffffffffffffffffffff1673ffffffffffffffffffffffffffffffffffffffff1681526020019081526020016000206000600554815260200190815260200160002081905550610aab8160016000888881548110610a1f57fe5b906000526020600020906007020160010160009054906101000a900473ffffffffffffffffffffffffffffffffffffffff1673ffffffffffffffffffffffffffffffffffffffff1673ffffffffffffffffffffffffffffffffffffffff16815260200190815260200160002060008d81526020019081526020016000205461243890919063ffffffff16565b60016000878781548110610abb57fe5b906000526020600020906007020160010160009054906101000a900473ffffffffffffffffffffffffffffffffffffffff1673ffffffffffffffffffffffffffffffffffffffff1673ffffffffffffffffffffffffffffffffffffffff16815260200190815260200160002060008c815260200190815260200160002081905550610bfd858581548110610b4b57fe5b906000526020600020906007020160040154820260016000888881548110610b6f57fe5b906000526020600020906007020160010160009054906101000a900473ffffffffffffffffffffffffffffffffffffffff1673ffffffffffffffffffffffffffffffffffffffff1673ffffffffffffffffffffffffffffffffffffffff16815260200190815260200160002060006005548152602001908152602001600020546123ee90919063ffffffff16565b60016000878781548110610c0d57fe5b906000526020600020906007020160010160009054906101000a900473ffffffffffffffffffffffffffffffffffffffff1673ffffffffffffffffffffffffffffffffffffffff1673ffffffffffffffffffffffffffffffffffffffff16815260200190815260200160002060006005548152602001908152602001600020819055505b60006001811115610c9e57fe5b886001811115610caa57fe5b141561118b57848481548110610cbc57fe5b9060005260206000209060070201600401548102600160003373ffffffffffffffffffffffffffffffffffffffff1673ffffffffffffffffffffffffffffffffffffffff16815260200190815260200160002060006005548152602001908152602001600020541015610d64576040517f08c379a0000000000000000000000000000000000000000000000000000000008152600401610d5b90612f52565b60405180910390fd5b610dc781600160003373ffffffffffffffffffffffffffffffffffffffff1673ffffffffffffffffffffffffffffffffffffffff16815260200190815260200160002060008d81526020019081526020016000205461243890919063ffffffff16565b600160003373ffffffffffffffffffffffffffffffffffffffff1673ffffffffffffffffffffffffffffffffffffffff16815260200190815260200160002060008c815260200190815260200160002081905550610eaf610e4e868681548110610e2d57fe5b9060005260206000209060070201600401548361248d90919063ffffffff16565b600160003373ffffffffffffffffffffffffffffffffffffffff1673ffffffffffffffffffffffffffffffffffffffff16815260200190815260200160002060006005548152602001908152602001600020546123ee90919063ffffffff16565b600160003373ffffffffffffffffffffffffffffffffffffffff1673ffffffffffffffffffffffffffffffffffffffff1681526020019081526020016000206000600554815260200190815260200160002081905550610fa58160016000888881548110610f1957fe5b906000526020600020906007020160010160009054906101000a900473ffffffffffffffffffffffffffffffffffffffff1673ffffffffffffffffffffffffffffffffffffffff1673ffffffffffffffffffffffffffffffffffffffff16815260200190815260200160002060008d8152602001908152602001600020546123ee90919063ffffffff16565b60016000878781548110610fb557fe5b906000526020600020906007020160010160009054906101000a900473ffffffffffffffffffffffffffffffffffffffff1673ffffffffffffffffffffffffffffffffffffffff1673ffffffffffffffffffffffffffffffffffffffff16815260200190815260200160002060008c8152602001908152602001600020819055506110f785858154811061104557fe5b90600052602060002090600702016004015482026001600088888154811061106957fe5b906000526020600020906007020160010160009054906101000a900473ffffffffffffffffffffffffffffffffffffffff1673ffffffffffffffffffffffffffffffffffffffff1673ffffffffffffffffffffffffffffffffffffffff168152602001908152602001600020600060055481526020019081526020016000205461243890919063ffffffff16565b6001600087878154811061110757fe5b906000526020600020906007020160010160009054906101000a900473ffffffffffffffffffffffffffffffffffffffff1673ffffffffffffffffffffffffffffffffffffffff1673ffffffffffffffffffffffffffffffffffffffff16815260200190815260200160002060006005548152602001908152602001600020819055505b61119f60018561243890919063ffffffff16565b93506111b7600160075461243890919063ffffffff16565b6007819055505050610683565b600091505b82805490508210801561121557508282815481106111e357fe5b90600052602060002090600702016002015483838154811061120157fe5b906000526020600020906007020160030154145b1561140b5760008290505b611238600185805490506123ee90919063ffffffff16565b81101561136f578361125460018361243890919063ffffffff16565b8154811061125e57fe5b906000526020600020906007020184828154811061127857fe5b9060005260206000209060070201600082015481600001556001820160009054906101000a900473ffffffffffffffffffffffffffffffffffffffff168160010160006101000a81548173ffffffffffffffffffffffffffffffffffffffff021916908373ffffffffffffffffffffffffffffffffffffffff1602179055506001820160149054906101000a900460ff168160010160146101000a81548160ff0219169083600181111561132857fe5b021790555060028201548160020155600382015481600301556004820154816004015560058201548160050155600682015481600601559050508080600101915050611220565b508280548061137a57fe5b60019003818190600052602060002090600702016000808201600090556001820160006101000a81549073ffffffffffffffffffffffffffffffffffffffff02191690556001820160146101000a81549060ff0219169055600282016000905560038201600090556004820160009055600582016000905560068201600090555050905581806001019250506111c9565b5050505050505050565b60006020528060005260406000206000915090508060000154908060010160009054906101000a900473ffffffffffffffffffffffffffffffffffffffff16905082565b600460009054906101000a900473ffffffffffffffffffffffffffffffffffffffff1673ffffffffffffffffffffffffffffffffffffffff163373ffffffffffffffffffffffffffffffffffffffff16146114e9576040517f08c379a00000000000000000000000000000000000000000000000000000000081526004016114e090612ef2565b60405180910390fd5b60405180604001604052808381526020018273ffffffffffffffffffffffffffffffffffffffff168152506000808481526020019081526020016000206000820151816000015560208201518160010160006101000a81548173ffffffffffffffffffffffffffffffffffffffff021916908373ffffffffffffffffffffffffffffffffffffffff16021790555090505060038290806001815401808255809150506001900390600052602060002001600090919091909150555050565b600381815481106115b457fe5b906000526020600020016000915090505481565b80600073ffffffffffffffffffffffffffffffffffffffff1660008083815260200190815260200160002060010160009054906101000a900473ffffffffffffffffffffffffffffffffffffffff1673ffffffffffffffffffffffffffffffffffffffff16141561166e576040517f08c379a000000000000000000000000000000000000000000000000000000000815260040161166590612f72565b60405180910390fd5b82600160003373ffffffffffffffffffffffffffffffffffffffff1673ffffffffffffffffffffffffffffffffffffffff1681526020019081526020016000206000848152602001908152602001600020541015611701576040517f08c379a00000000000000000000000000000000000000000000000000000000081526004016116f890612eb2565b60405180910390fd5b61176483600160003373ffffffffffffffffffffffffffffffffffffffff1673ffffffffffffffffffffffffffffffffffffffff1681526020019081526020016000206000858152602001908152602001600020546123ee90919063ffffffff16565b600160003373ffffffffffffffffffffffffffffffffffffffff1673ffffffffffffffffffffffffffffffffffffffff16815260200190815260200160002060008481526020019081526020016000208190555060008083815260200190815260200160002060010160009054906101000a900473ffffffffffffffffffffffffffffffffffffffff1673ffffffffffffffffffffffffffffffffffffffff1663a9059cbb33856040518363ffffffff167c0100000000000000000000000000000000000000000000000000000000028152600401611844929190612dbf565b602060405180830381600087803b15801561185e57600080fd5b505af1158015611872573d6000803e3d6000fd5b505050506040513d601f19601f820116820180604052506118969190810190612699565b50505050565b6060806003805490506040519080825280602002602001820160405280156118de57816020015b6118cb612558565b8152602001906001900390816118c35790505b50905060008090505b6003805490508110156119bb5760405180604001604052806000806003858154811061190f57fe5b906000526020600020015481526020019081526020016000206000015481526020016000806003858154811061194157fe5b9060005260206000200154815260200190815260200160002060010160009054906101000a900473ffffffffffffffffffffffffffffffffffffffff1673ffffffffffffffffffffffffffffffffffffffff168152508282815181106119a357fe5b602002602001018190525080806001019150506118e7565b508091505090565b80600073ffffffffffffffffffffffffffffffffffffffff1660008083815260200190815260200160002060010160009054906101000a900473ffffffffffffffffffffffffffffffffffffffff1673ffffffffffffffffffffffffffffffffffffffff161415611a69576040517f08c379a0000000000000000000000000000000000000000000000000000000008152600401611a6090612f72565b60405180910390fd5b60008083815260200190815260200160002060010160009054906101000a900473ffffffffffffffffffffffffffffffffffffffff1673ffffffffffffffffffffffffffffffffffffffff166323b872dd3330866040518463ffffffff167c0100000000000000000000000000000000000000000000000000000000028152600401611af793929190612d88565b602060405180830381600087803b158015611b1157600080fd5b505af1158015611b25573d6000803e3d6000fd5b505050506040513d601f19601f82011682018060405250611b499190810190612699565b50611bad83600160003373ffffffffffffffffffffffffffffffffffffffff1673ffffffffffffffffffffffffffffffffffffffff16815260200190815260200160002060008581526020019081526020016000205461243890919063ffffffff16565b600160003373ffffffffffffffffffffffffffffffffffffffff1673ffffffffffffffffffffffffffffffffffffffff168152602001908152602001600020600084815260200190815260200160002081905550505050565b83600073ffffffffffffffffffffffffffffffffffffffff1660008083815260200190815260200160002060010160009054906101000a900473ffffffffffffffffffffffffffffffffffffffff1673ffffffffffffffffffffffffffffffffffffffff161415611cac576040517f08c379a0000000000000000000000000000000000000000000000000000000008152600401611ca390612f72565b60405180910390fd5b84600554811415611cf2576040517f08c379a0000000000000000000000000000000000000000000000000000000008152600401611ce990612ed2565b60405180910390fd5b600180811115611cfe57fe5b836001811115611d0a57fe5b1415611da85784600160003373ffffffffffffffffffffffffffffffffffffffff1673ffffffffffffffffffffffffffffffffffffffff1681526020019081526020016000206000888152602001908152602001600020541015611da3576040517f08c379a0000000000000000000000000000000000000000000000000000000008152600401611d9a90612f32565b60405180910390fd5b611e40565b838502600160003373ffffffffffffffffffffffffffffffffffffffff1673ffffffffffffffffffffffffffffffffffffffff16815260200190815260200160002060006005548152602001908152602001600020541015611e3f576040517f08c379a0000000000000000000000000000000000000000000000000000000008152600401611e3690612f52565b60405180910390fd5b5b6000600260008881526020019081526020016000206000856001811115611e6357fe5b815260200190815260200160002090508060405180610100016040528060065481526020013373ffffffffffffffffffffffffffffffffffffffff168152602001866001811115611eb057fe5b8152602001888152602001600081526020018781526020018981526020014281525090806001815401808255809150506001900390600052602060002090600702016000909190919091506000820151816000015560208201518160010160006101000a81548173ffffffffffffffffffffffffffffffffffffffff021916908373ffffffffffffffffffffffffffffffffffffffff16021790555060408201518160010160146101000a81548160ff02191690836001811115611f7057fe5b0217905550606082015181600201556080820151816003015560a0820151816004015560c0820151816005015560e082015181600601555050600080828054905011611fbd576000611fc6565b60018280549050035b90505b60008111156123875760006001811115611fdf57fe5b856001811115611feb57fe5b1480156120345750818181548110611fff57fe5b90600052602060002090600702016004015482600183038154811061202057fe5b906000526020600020906007020160040154115b1561203e57612387565b60018081111561204a57fe5b85600181111561205657fe5b14801561209f575081818154811061206a57fe5b90600052602060002090600702016004015482600183038154811061208b57fe5b906000526020600020906007020160040154105b156120a957612387565b6120b161258b565b8260018303815481106120c057fe5b906000526020600020906007020160405180610100016040529081600082015481526020016001820160009054906101000a900473ffffffffffffffffffffffffffffffffffffffff1673ffffffffffffffffffffffffffffffffffffffff1673ffffffffffffffffffffffffffffffffffffffff1681526020016001820160149054906101000a900460ff16600181111561215857fe5b600181111561216357fe5b81526020016002820154815260200160038201548152602001600482015481526020016005820154815260200160068201548152505090508282815481106121a757fe5b90600052602060002090600702018360018403815481106121c457fe5b9060005260206000209060070201600082015481600001556001820160009054906101000a900473ffffffffffffffffffffffffffffffffffffffff168160010160006101000a81548173ffffffffffffffffffffffffffffffffffffffff021916908373ffffffffffffffffffffffffffffffffffffffff1602179055506001820160149054906101000a900460ff168160010160146101000a81548160ff0219169083600181111561227457fe5b02179055506002820154816002015560038201548160030155600482015481600401556005820154816005015560068201548160060155905050808383815481106122bb57fe5b90600052602060002090600702016000820151816000015560208201518160010160006101000a81548173ffffffffffffffffffffffffffffffffffffffff021916908373ffffffffffffffffffffffffffffffffffffffff16021790555060408201518160010160146101000a81548160ff0219169083600181111561233e57fe5b0217905550606082015181600201556080820151816003015560a0820151816004015560c0820151816005015560e0820151816006015590505081806001900392505050611fc9565b6006600081548092919060010191905055505050505050505050565b6001602052816000526040600020602052806000526040600020600091509150505481565b600460009054906101000a900473ffffffffffffffffffffffffffffffffffffffff1681565b600061243083836040518060400160405280601e81526020017f536166654d6174683a207375627472616374696f6e206f766572666c6f7700008152506124fd565b905092915050565b600080828401905083811015612483576040517f08c379a000000000000000000000000000000000000000000000000000000000815260040161247a90612e92565b60405180910390fd5b8091505092915050565b6000808314156124a057600090506124f7565b60008284029050828482816124b157fe5b04146124f2576040517f08c379a00000000000000000000000000000000000000000000000000000000081526004016124e990612f12565b60405180910390fd5b809150505b92915050565b6000838311158290612545576040517f08c379a000000000000000000000000000000000000000000000000000000000815260040161253c9190612e70565b60405180910390fd5b5060008385039050809150509392505050565b604051806040016040528060008019168152602001600073ffffffffffffffffffffffffffffffffffffffff1681525090565b60405180610100016040528060008152602001600073ffffffffffffffffffffffffffffffffffffffff168152602001600060018111156125c857fe5b815260200160008152602001600081526020016000815260200160008019168152602001600081525090565b6000813590506126038161320a565b92915050565b60008151905061261881613221565b92915050565b60008135905061262d81613238565b92915050565b6000813590506126428161324f565b92915050565b6000813590506126578161325f565b92915050565b6000806040838503121561267057600080fd5b600061267e858286016125f4565b925050602061268f8582860161261e565b9150509250929050565b6000602082840312156126ab57600080fd5b60006126b984828501612609565b91505092915050565b6000602082840312156126d457600080fd5b60006126e28482850161261e565b91505092915050565b600080604083850312156126fe57600080fd5b600061270c8582860161261e565b925050602061271d858286016125f4565b9150509250929050565b6000806040838503121561273a57600080fd5b60006127488582860161261e565b925050602061275985828601612633565b9150509250929050565b60008060006060848603121561277857600080fd5b60006127868682870161261e565b935050602061279786828701612648565b92505060406127a886828701612633565b9150509250925092565b6000806000606084860312156127c757600080fd5b60006127d58682870161261e565b93505060206127e686828701612648565b92505060406127f786828701612648565b9150509250925092565b6000806000806080858703121561281757600080fd5b60006128258782880161261e565b945050602061283687828801612648565b935050604061284787828801612648565b925050606061285887828801612633565b91505092959194509250565b60006020828403121561287657600080fd5b600061288484828501612648565b91505092915050565b600080604083850312156128a057600080fd5b60006128ae85828601612648565b92505060206128bf8582860161261e565b9150509250929050565b60006128d58383612c7e565b6101008301905092915050565b60006128ee8383612d20565b60408301905092915050565b61290381613171565b82525050565b6129128161310c565b82525050565b6129218161310c565b82525050565b60006129328261309e565b61293c81856130d9565b93506129478361307e565b8060005b8381101561297857815161295f88826128c9565b975061296a836130bf565b92505060018101905061294b565b5085935050505092915050565b6000612990826130a9565b61299a81856130ea565b93506129a58361308e565b8060005b838110156129d65781516129bd88826128e2565b97506129c8836130cc565b9250506001810190506129a9565b5085935050505092915050565b6129ec8161312a565b82525050565b6129fb8161312a565b82525050565b612a0a81613183565b82525050565b612a1981613183565b82525050565b6000612a2a826130b4565b612a3481856130fb565b9350612a448185602086016131b9565b612a4d816131ec565b840191505092915050565b6000612a65601b836130fb565b91507f536166654d6174683a206164646974696f6e206f766572666c6f7700000000006000830152602082019050919050565b6000612aa5600f836130fb565b91507f62616c616e636520746f6f206c6f7700000000000000000000000000000000006000830152602082019050919050565b6000612ae56010836130fb565b91507f63616e6e6f7420747261646520444149000000000000000000000000000000006000830152602082019050919050565b6000612b256014836130fb565b91507f4e6f7420616e2061646d696e20616464726573730000000000000000000000006000830152602082019050919050565b6000612b656021836130fb565b91507f536166654d6174683a206d756c7469706c69636174696f6e206f766572666c6f60008301527f77000000000000000000000000000000000000000000000000000000000000006020830152604082019050919050565b6000612bcb6015836130fb565b91507f746f6b656e2062616c616e636520746f6f206c6f7700000000000000000000006000830152602082019050919050565b6000612c0b6013836130fb565b91507f6461692062616c616e636520746f6f206c6f77000000000000000000000000006000830152602082019050919050565b6000612c4b6019836130fb565b91507f7468697320746f6b656e20646f6573206e6f74206578697374000000000000006000830152602082019050919050565b61010082016000820151612c956000850182612d4f565b506020820151612ca86020850182612909565b506040820151612cbb6040850182612a01565b506060820151612cce6060850182612d4f565b506080820151612ce16080850182612d4f565b5060a0820151612cf460a0850182612d4f565b5060c0820151612d0760c08501826129e3565b5060e0820151612d1a60e0850182612d4f565b50505050565b604082016000820151612d3660008501826129e3565b506020820151612d496020850182612909565b50505050565b612d5881613167565b82525050565b612d6781613167565b82525050565b6000602082019050612d826000830184612918565b92915050565b6000606082019050612d9d60008301866128fa565b612daa6020830185612918565b612db76040830184612d5e565b949350505050565b6000604082019050612dd460008301856128fa565b612de16020830184612d5e565b9392505050565b60006020820190508181036000830152612e028184612927565b905092915050565b60006020820190508181036000830152612e248184612985565b905092915050565b6000602082019050612e4160008301846129f2565b92915050565b6000604082019050612e5c60008301856129f2565b612e696020830184612918565b9392505050565b60006020820190508181036000830152612e8a8184612a1f565b905092915050565b60006020820190508181036000830152612eab81612a58565b9050919050565b60006020820190508181036000830152612ecb81612a98565b9050919050565b60006020820190508181036000830152612eeb81612ad8565b9050919050565b60006020820190508181036000830152612f0b81612b18565b9050919050565b60006020820190508181036000830152612f2b81612b58565b9050919050565b60006020820190508181036000830152612f4b81612bbe565b9050919050565b60006020820190508181036000830152612f6b81612bfe565b9050919050565b60006020820190508181036000830152612f8b81612c3e565b9050919050565b6000602082019050612fa76000830184612d5e565b92915050565b600061010082019050612fc3600083018b612d5e565b612fd0602083018a612918565b612fdd6040830189612a10565b612fea6060830188612d5e565b612ff76080830187612d5e565b61300460a0830186612d5e565b61301160c08301856129f2565b61301e60e0830184612d5e565b9998505050505050505050565b600060a0820190506130406000830188612d5e565b61304d6020830187612d5e565b61305a6040830186612d5e565b6130676060830185612d5e565b6130746080830184612d5e565b9695505050505050565b6000819050602082019050919050565b6000819050602082019050919050565b600081519050919050565b600081519050919050565b600081519050919050565b6000602082019050919050565b6000602082019050919050565b600082825260208201905092915050565b600082825260208201905092915050565b600082825260208201905092915050565b600061311782613147565b9050919050565b60008115159050919050565b6000819050919050565b6000819050613142826131fd565b919050565b600073ffffffffffffffffffffffffffffffffffffffff82169050919050565b6000819050919050565b600061317c82613195565b9050919050565b600061318e82613134565b9050919050565b60006131a0826131a7565b9050919050565b60006131b282613147565b9050919050565b60005b838110156131d75780820151818401526020810190506131bc565b838111156131e6576000848401525b50505050565b6000601f19601f8301169050919050565b6002811061320757fe5b50565b6132138161310c565b811461321e57600080fd5b50565b61322a8161311e565b811461323557600080fd5b50565b6132418161312a565b811461324c57600080fd5b50565b6002811061325c57600080fd5b50565b61326881613167565b811461327357600080fd5b5056fea2646970667358221220c00fd3abbbafefd42e5b2b579c002a78c12a84f5948bbad26e745154e4876be064736f6c63430006030033",
  "source": "pragma experimental ABIEncoderV2;\nimport '@openzeppelin/contracts/token/ERC20/IERC20.sol';\nimport '@openzeppelin/contracts/math/SafeMath.sol';\ncontract DEX {\n  using SafeMath for uint;\n  enum Side{\n    BUY,SELL\n  }\n  struct Token{\n    bytes32 ticker;\n    address tokenAddress;\n  }\n  struct Order{\n    uint id;\n    address trader;\n    Side side;\n    uint amount;\n    uint filled;\n    uint price;\n    bytes32 ticker;\n    uint date;\n  }\n  mapping(bytes32 => Token) public tokens;\n  mapping(address => mapping(bytes32 => uint))public tradersbalances;\n  mapping(bytes32 => mapping(uint => Order[])) public orderBook;\n  bytes32[] public tokenList;\n  address public admin;\n  bytes32 DAI = bytes32('DAI');\n  uint nextOrderId;\n  uint nextTradeId;\n  event newTrade(\n    uint tradeId,\n    uint orderId,\n    bytes32 indexed ticker,\n    address indexed trader1,\n    address indexed trader2,\n    uint amount,\n    uint price,\n    uint date\n  );\n\n  constructor() public {\n    admin = msg.sender;\n  }\n   modifier onlyAdmin(){\n    require(msg.sender == admin, 'Not an admin address');\n    _;\n  }\n  \n  modifier tokenExist(bytes32 _ticker){\n    require(tokens[_ticker].tokenAddress != address(0), 'this token does not exist' );\n    _;\n  }\n\n  modifier tokenIsNotDai(bytes32 _ticker){\n      require(_ticker != DAI, 'cannot trade DAI');\n      _;\n  }\n\n  function addToken(bytes32 _ticker, address _tokenAddress) external onlyAdmin{\n    tokens[_ticker] = Token(_ticker, _tokenAddress);\n    tokenList.push(_ticker);\n  }\n\n  function deposit(uint _amount, bytes32 _ticker) external tokenExist(_ticker) {\n    IERC20(tokens[_ticker].tokenAddress).transferFrom(msg.sender, address(this), _amount);\n    tradersbalances[msg.sender][_ticker] = tradersbalances[msg.sender][_ticker].add(_amount);\n  }\n\n  function withdraw(uint _amount, bytes32 _ticker) external tokenExist(_ticker){\n    require(tradersbalances[msg.sender][_ticker] >= _amount, 'balance too low');\n    tradersbalances[msg.sender][_ticker] = tradersbalances[msg.sender][_ticker].sub(_amount);\n    IERC20(tokens[_ticker].tokenAddress).transfer(msg.sender, _amount);\n  }\n\n  function createLimitOrder(bytes32 _ticker, uint _amount,\n   uint _price, Side _side) tokenExist(_ticker) external tokenIsNotDai(_ticker) {\n     if(_side == Side.SELL){\n       require (tradersbalances[msg.sender][_ticker] >= _amount, 'token balance too low');\n     }\n     else{\n       require( tradersbalances[msg.sender][DAI] >= _amount * _price, 'dai balance too low');\n     }\n     Order[] storage orders = orderBook[_ticker][uint(_side)];\n     orders.push(\n       Order(nextOrderId,\n              msg.sender,\n              _side,\n              _amount,\n              0,\n              _price,\n              _ticker,\n              now\n              ));\n\n    uint i = orders.length > 0 ? orders.length - 1 : 0;\n    while(i > 0){\n      if(_side == Side.BUY && orders[i-1].price > orders[i].price ){\n        break;\n      }\n      if(_side == Side.SELL && orders[i-1].price < orders[i].price){\n        break;\n      }\n      Order memory order = orders[i-1];\n      orders[i-1] = orders[i];\n      orders[i] = order;\n      i--;\n    }\n    nextOrderId++;\n   }\n\nfunction createMarketOrder(bytes32 _ticker,uint _amount, Side _side) \ntokenExist(_ticker) tokenIsNotDai(_ticker) external{\n    if(_side == Side.SELL){\n      require(tradersbalances[msg.sender][_ticker] >= _amount, 'token balance too low');\n    }\n    Order[] storage orders = orderBook[_ticker][uint(_side == Side.BUY ? Side.SELL : Side.BUY )];\n    uint i = 0;\n    uint remaining = _amount;\n\n    while(i < orders.length && remaining > 0){\n      uint available = orders[i].amount.sub(orders[i].filled);\n      uint matched = (remaining > available)? available : remaining;\n      remaining = remaining.sub(matched);\n      orders[i].filled =orders[i].filled.add(matched);\n      emit newTrade(  \n        nextTradeId,\n        orders[i].id,\n        _ticker,\n        orders[i].trader,\n        msg.sender,\n        matched,\n        orders[i].price,\n        now);\n      if (_side == Side.SELL){\n        tradersbalances[msg.sender][_ticker] = tradersbalances[msg.sender][_ticker].sub(matched);\n        tradersbalances[msg.sender][DAI] = tradersbalances[msg.sender][DAI].add(matched.mul(orders[i].price));\n        tradersbalances[orders[i].trader][_ticker] = tradersbalances[orders[i].trader][_ticker].add(matched);\n        tradersbalances[orders[i].trader][DAI] = tradersbalances[orders[i].trader][DAI].sub(matched * orders[i].price);\n      }\n      if (_side == Side.BUY){\n        require (tradersbalances[msg.sender][DAI] >= matched * orders[i].price, 'dai balance too low');\n        tradersbalances[msg.sender][_ticker] = tradersbalances[msg.sender][_ticker].add(matched);\n        tradersbalances[msg.sender][DAI] = tradersbalances[msg.sender][DAI].sub(matched.mul(orders[i].price));\n        tradersbalances[orders[i].trader][_ticker] = tradersbalances[orders[i].trader][_ticker].sub(matched);\n        tradersbalances[orders[i].trader][DAI] = tradersbalances[orders[i].trader][DAI].add(matched * orders[i].price);\n      }\n      i = i.add(1);\n      nextTradeId = nextTradeId.add(1);\n    }\n    i = 0;\n    while(i < orders.length && orders[i].filled == orders[i].amount){\n      for(uint j = i; j < orders.length.sub(1); j++){\n        orders[j] = orders[j.add(1)]; \n      }\n      orders.pop();\n      i++;\n    }\n\n}\nfunction getOrders(\n  bytes32 ticker, \n  Side side) \n  external \n  view\n  returns(Order[] memory) {\n  return orderBook[ticker][uint(side)];\n}\n\nfunction getTokens() \n      external \n      view \n      returns(Token[] memory) {\n      Token[] memory _tokens = new Token[](tokenList.length);\n      for (uint i = 0; i < tokenList.length; i++) {\n        _tokens[i] = Token(\n          tokens[tokenList[i]].ticker,\n          tokens[tokenList[i]].tokenAddress\n        );\n      }\n      return _tokens;\n    }\n} ",
  "sourcePath": "C:/Users/Mr Ayoola Gbenga/Desktop/Blockchain Projects/Nervos blockchain/Decentralized Exchange2/contracts/DEX.sol",
  "compiler": {
    "name": "solc",
    "version": "0.6.3+commit.8dda9521.Emscripten.clang"
  },
  "schemaVersion": "3.0.22",
  "updatedAt": "2021-08-19T22:38:19.809Z",
  "devdoc": {
    "methods": {}
  },
  "userdoc": {
    "methods": {}
  }
}